:100000000C9434000C9451000C9451000C94510049
:100010000C9451000C9451000C9451000C9451001C
:100020000C9451000C9451000C9451000C9451000C
:100030000C9451000C9451000C949A000C945100B3
:100040000C9451000C9451000C9451000C945100EC
:100050000C9451000C946D000C9451000C945100C0
:100060000C9451000C94510011241FBECFEFD8E026
:10007000DEBFCDBF11E0A0E0B1E0E4EFF2E002C0EE
:1000800005900D92AE30B107D9F721E0AEE0B1E0B6
:1000900001C01D92A931B207E1F70E94E4000C945F
:1000A00078010C94000080E480937C008FE88093BA
:1000B0007A0081E080937E00089586E087B90E94EF
:1000C0005300089580910001909101010895EAE79D
:1000D000F0E080818064808308951F920F920FB6B4
:1000E0000F9211248F939F938091780090917900C3
:1000F00090930101809300019F918F910F900FBE0B
:100100000F901F901895823061F018F4813031F013
:100110000895833049F0843051F0089584E185B921
:1001200008958CE085B908958AE085B9089582E143
:1001300085B908951F920F920FB60F9211242F9335
:100140003F934F935F936F937F938F939F93AF935F
:10015000BF93EF93FF93F89480910E01813019F0D3
:10016000823079F01BC080910201843030F480919C
:1001700002018F5F8093020111C081E08093020130
:100180000DC080910201882331F0809102018150DD
:100190008093020103C084E08093020180910201F8
:1001A0000E9483007894FF91EF91BF91AF919F914E
:1001B0008F917F916F915F914F913F912F910F9010
:1001C0000FBE0F901F90189587E690E00E940901DE
:1001D0000E945D00789483E091E00E941C010E94DF
:1001E00067000E9462004AE050E06FE071E00E9408
:1001F00038018FE091E00E941C010E9467002FEF00
:1002000083ED90E3215080409040E1F700C0000072
:10021000E8CF9093C5008093C40088E18093C1002B
:1002200086E08093C2000895E0ECF0E0908195FFB5
:10023000FDCF8093C6000895CF93DF93EC018881B2
:10024000811108C003C00E9414010FC08AE00E94FF
:1002500014010BC00E94140189818823B9F30E9404
:1002600014018A818111EFCFF1CFDF91CF910895F1
:100270004532510520F4423010F00C944301FB014B
:100280001082CB010895BB274A3031F4992322F420
:10029000BDE2909581959F4F0C944F01BB27FB01C8
:1002A0005527AA27880F991FAA1FA41710F0A41B6F
:1002B00083955051B9F7A05DAA3308F0A95DA193C9
:1002C000009779F7B111B1931192CB010C946801A9
:1002D000DC01FC01672F71917723E1F7329704C0AD
:1002E0007C916D9370836291AE17BF07C8F3089538
:0402F000F894FFCFB0
:0E02F4000100014265790000000000000000DA
:00000001FF
