:100000000C9434000C9451000C9451000C94510049
:100010000C9451000C9451000C9451000C9451001C
:100020000C9451000C9451000C9451000C9451000C
:100030000C9451000C9451000C94B3000C9451009A
:100040000C9451000C9451000C9451000C945100EC
:100050000C9451000C946D000C9451000C945100C0
:100060000C9451000C94510011241FBECFEFD8E026
:10007000DEBFCDBF11E0A0E0B1E0ECE6F2E002C0EF
:1000800005900D92AC30B107D9F721E0ACE0B1E0BA
:1000900001C01D92A631B207E1F70E948C000C94BA
:1000A00034010C94000080E480937C008FE88093FE
:1000B0007A0081E080937E00089586E087B90E94EF
:1000C0005300089580910001909101010895EAE79D
:1000D000F0E080818064808308951F920F920FB6B4
:1000E0000F9211248F939F938091780090917900C3
:1000F00090930101809300019F918F910F900FBE0B
:100100000F901F90189582E084BD94E197BD809375
:100110006E0085E085BD089587E690E00E94C500E9
:100120000E945D0078940E94830082E091E00E942A
:10013000D8000E9467000E9462004AE050E06CE034
:1001400071E00E94F4008CE091E00E94D8000E94CF
:1001500067002FEF83ED90E3215080409040E1F75E
:1001600000C00000E8CF1F920F920FB60F9211242B
:100170008F939F9398B182E0892788B99F918F913F
:100180000F900FBE0F901F9018959093C50080930D
:10019000C40088E18093C10086E08093C200089586
:1001A000E0ECF0E0908195FFFDCF8093C6000895CC
:1001B000CF93DF93EC018881811108C003C00E94B6
:1001C000D0000FC08AE00E94D0000BC00E94D00077
:1001D00089818823B9F30E94D0008A818111EFCFF1
:1001E000F1CFDF91CF9108954532510520F442308F
:1001F00010F00C94FF00FB011082CB010895BB2787
:100200004A3031F4992322F4BDE2909581959F4FB5
:100210000C940B01BB27FB015527AA27880F991FB8
:10022000AA1FA41710F0A41B83955051B9F7A05D25
:10023000AA3308F0A95DA193009779F7B111B193A2
:100240001192CB010C942401DC01FC01672F719108
:100250007723E1F7329704C07C916D9370836291AC
:0C026000AE17BF07C8F30895F894FFCF55
:0C026C0001004265790000000000000065
:00000001FF
